:03000000020100FA
:1001000012013C120155120110EB650970F280F0EA
:10011000759840758920758DFD75CCFDD28ED29C69
:100120003098FDC298E599647D6001227840790895
:10013000E608F5993099FDC299D9F5227540007508
:1001400041007542007543007544007545007546D1
:10015000007547002279FE78407B017A0012016128
:100160002275B0FFEB14F5A0E9F590120183E5B01C
:10017000F486F065F070027A09F6E923F9080BBB02
:0C01800009DF227F047E19DEFEDFFA2278
:00000001FF
